{
  "abi": [
    {
      "type": "constructor",
      "inputs": [],
      "stateMutability": "nonpayable"
    },
    {
      "type": "receive",
      "stateMutability": "payable"
    },
    {
      "type": "function",
      "name": "donateERC20",
      "inputs": [
        {
          "name": "tokenAddress",
          "type": "address",
          "internalType": "address"
        },
        {
          "name": "recipientAddress",
          "type": "address",
          "internalType": "address"
        },
        {
          "name": "amount",
          "type": "uint256",
          "internalType": "uint256"
        },
        {
          "name": "data",
          "type": "bytes",
          "internalType": "bytes"
        }
      ],
      "outputs": [],
      "stateMutability": "nonpayable"
    },
    {
      "type": "function",
      "name": "donateETH",
      "inputs": [
        {
          "name": "recipientAddress",
          "type": "address",
          "internalType": "address"
        },
        {
          "name": "amount",
          "type": "uint256",
          "internalType": "uint256"
        },
        {
          "name": "data",
          "type": "bytes",
          "internalType": "bytes"
        }
      ],
      "outputs": [],
      "stateMutability": "payable"
    },
    {
      "type": "function",
      "name": "donateManyERC20",
      "inputs": [
        {
          "name": "tokenAddress",
          "type": "address",
          "internalType": "address"
        },
        {
          "name": "totalAmount",
          "type": "uint256",
          "internalType": "uint256"
        },
        {
          "name": "recipientAddresses",
          "type": "address[]",
          "internalType": "address[]"
        },
        {
          "name": "amounts",
          "type": "uint256[]",
          "internalType": "uint256[]"
        },
        {
          "name": "data",
          "type": "bytes[]",
          "internalType": "bytes[]"
        }
      ],
      "outputs": [],
      "stateMutability": "nonpayable"
    },
    {
      "type": "function",
      "name": "donateManyETH",
      "inputs": [
        {
          "name": "totalAmount",
          "type": "uint256",
          "internalType": "uint256"
        },
        {
          "name": "recipientAddresses",
          "type": "address[]",
          "internalType": "address[]"
        },
        {
          "name": "amounts",
          "type": "uint256[]",
          "internalType": "uint256[]"
        },
        {
          "name": "data",
          "type": "bytes[]",
          "internalType": "bytes[]"
        }
      ],
      "outputs": [],
      "stateMutability": "payable"
    },
    {
      "type": "function",
      "name": "initialize",
      "inputs": [],
      "outputs": [],
      "stateMutability": "nonpayable"
    },
    {
      "type": "function",
      "name": "owner",
      "inputs": [],
      "outputs": [
        {
          "name": "",
          "type": "address",
          "internalType": "address"
        }
      ],
      "stateMutability": "view"
    },
    {
      "type": "function",
      "name": "renounceOwnership",
      "inputs": [],
      "outputs": [],
      "stateMutability": "nonpayable"
    },
    {
      "type": "function",
      "name": "transferOwnership",
      "inputs": [
        {
          "name": "newOwner",
          "type": "address",
          "internalType": "address"
        }
      ],
      "outputs": [],
      "stateMutability": "nonpayable"
    },
    {
      "type": "event",
      "name": "DonationMade",
      "inputs": [
        {
          "name": "recipientAddress",
          "type": "address",
          "indexed": true,
          "internalType": "address"
        },
        {
          "name": "amount",
          "type": "uint256",
          "indexed": false,
          "internalType": "uint256"
        },
        {
          "name": "tokenAddress",
          "type": "address",
          "indexed": true,
          "internalType": "address"
        }
      ],
      "anonymous": false
    },
    {
      "type": "event",
      "name": "Initialized",
      "inputs": [
        {
          "name": "version",
          "type": "uint64",
          "indexed": false,
          "internalType": "uint64"
        }
      ],
      "anonymous": false
    },
    {
      "type": "event",
      "name": "OwnershipTransferred",
      "inputs": [
        {
          "name": "previousOwner",
          "type": "address",
          "indexed": true,
          "internalType": "address"
        },
        {
          "name": "newOwner",
          "type": "address",
          "indexed": true,
          "internalType": "address"
        }
      ],
      "anonymous": false
    },
    {
      "type": "error",
      "name": "InsufficientAllowance",
      "inputs": []
    },
    {
      "type": "error",
      "name": "InvalidInitialization",
      "inputs": []
    },
    {
      "type": "error",
      "name": "InvalidInput",
      "inputs": []
    },
    {
      "type": "error",
      "name": "NotInitializing",
      "inputs": []
    },
    {
      "type": "error",
      "name": "OwnableInvalidOwner",
      "inputs": [
        {
          "name": "owner",
          "type": "address",
          "internalType": "address"
        }
      ]
    },
    {
      "type": "error",
      "name": "OwnableUnauthorizedAccount",
      "inputs": [
        {
          "name": "account",
          "type": "address",
          "internalType": "address"
        }
      ]
    },
    {
      "type": "error",
      "name": "ReentrancyGuardReentrantCall",
      "inputs": []
    }
  ],
  "bytecode": {
    "object": "0x608080604052346100b8577ff0c57e16840df040f15088dc2f81fe391c3923bec73e23a9662efc9c229c6a009081549060ff8260401c166100a957506001600160401b036002600160401b031982821601610064575b60405161141b90816100bd8239f35b6001600160401b031990911681179091556040519081527fc7f505b2f371ae2175ee4913f4499e1f2633a7b5936321eed1cdaeb6115181d290602090a15f8080610055565b63f92ee8a960e01b8152600490fd5b5f80fdfe60406080815260048036101561009b575b361561001a575f80fd5b602060849251917f08c379a00000000000000000000000000000000000000000000000000000000083528201526024808201527f55736520616c6c6f636174654554482066756e6374696f6e20746f2073656e6460448201527f20455448000000000000000000000000000000000000000000000000000000006064820152fd5b5f3560e01c8063715018a614610df05780638129fc1c14610c3b5780638da5cb5b14610be85780638f06dca414610927578063ab6e9f5e146107dd578063b5f013351461042b578063f2fde38b146104005763f962d16403610010579060806003193601126103fc57602480359267ffffffffffffffff938481116103fc576101279036908301610edf565b9390946044926044358281116103fc576101449036908301610edf565b9490956064936064359081116103fc576101619036908501610edf565b610169611332565b808a148015906103f2575b6103ca5786519161018483610f10565b5f83526020998a84019c8d883590528c369061019f92611087565b998985019a8b5236906101b1926110f2565b916060840192835236906101c492611140565b9a608083019b8c5273ffffffffffffffffffffffffffffffffffffffff8093511661036e57513403610312575f5b8a811061021f5760017f9b779b17422d0df92223018b32b4d1fa46e071723d6817e2486d003becc55f0055005b8b89610246838661023d82610235818a516111c0565b5195516111c0565b511693516111c0565b505f80808084865af18a8d3d1561030b575f903d61026f61026682610fff565b94519485610f59565b83523d92013e5b156102af57600192917f7e84cf355329d6b808c9e3ae4ee1b5f653dc7e69685aaf385f7a0b9860ce9fc38d5f938d51908152a3016101f2565b50505050509060137f455448207472616e73666572206661696c65640000000000000000000000000092888751957f08c379a0000000000000000000000000000000000000000000000000000000008752860152840152820152fd5b5050610276565b6064858a8951917f08c379a0000000000000000000000000000000000000000000000000000000008352820152601960248201527f496e636f72726563742045544820616d6f756e742073656e74000000000000006044820152fd5b6064868b8a51917f08c379a0000000000000000000000000000000000000000000000000000000008352820152601d60248201527f496e76616c696420746f6b656e206164647265737320666f72204554480000006044820152fd5b8487517fb4fa3fb3000000000000000000000000000000000000000000000000000000008152fd5b50878a1415610174565b5f80fd5b346103fc5760206003193601126103fc5761042961041c610e8e565b6104246112c2565b611201565b005b50346103fc5760a06003193601126103fc57610445610e8e565b6024906024356044916044359367ffffffffffffffff948581116103fc576104709036908801610edf565b9690946064926064358881116103fc5761048d9036908501610edf565b9590986084359081116103fc576104a79036908601610edf565b996104b0611332565b8a8c148015906107d3575b6107ab578c517fdd62ed3e000000000000000000000000000000000000000000000000000000008152338782019081523060208281019190915273ffffffffffffffffffffffffffffffffffffffff9586169c909b909290918c9082908f908290819060400103915afa80156107a05782915f9161076f575b5010610747578e519b6105468d610f10565b8c528a8c01528c369061055892611087565b978d8b01988952369061056a926110f2565b9960608a019a8b52369061057d92611140565b976080810198895281815116151561059490610f9a565b5f5b8b81106105c35760017f9b779b17422d0df92223018b32b4d1fa46e071723d6817e2486d003becc55f0055005b8a8a896105de848761023d8261023581848c511699516111c0565b508215801561073f575b610716578015610716578f517f23b872dd000000000000000000000000000000000000000000000000000000008152338a820152828882015281898201528c818c815f885af190811561070a575f916106d4575b501561067757908f8c60019594937f7e84cf355329d6b808c9e3ae4ee1b5f653dc7e69685aaf385f7a0b9860ce9fc39251908152a301610596565b5050505050509060157f4552433230207472616e73666572206661696c6564000000000000000000000092878c51957f08c379a0000000000000000000000000000000000000000000000000000000008752860152840152820152fd5b90508c81813d8311610703575b6106eb8183610f59565b810103126103fc575180151581036103fc575f61063c565b503d6106e1565b50508f513d5f823e3d90fd5b50878f517fb4fa3fb3000000000000000000000000000000000000000000000000000000008152fd5b5081156105e8565b878f517f13be252b000000000000000000000000000000000000000000000000000000008152fd5b8092508d8092503d8311610799575b6107888183610f59565b810103126103fc578190515f610534565b503d61077e565b508f513d5f823e3d90fd5b858d517fb4fa3fb3000000000000000000000000000000000000000000000000000000008152fd5b50878c14156104bb565b5060606003193601126103fc576107f2610e8e565b6024359160443567ffffffffffffffff81116103fc576108186108279136908401610eb1565b610820611332565b3691611039565b505f80808086865af13d15610922573d61084081610fff565b9061084d87519283610f59565b81525f60203d92013e5b156108c55750602073ffffffffffffffffffffffffffffffffffffffff7f7e84cf355329d6b808c9e3ae4ee1b5f653dc7e69685aaf385f7a0b9860ce9fc3925f95519485521692a360017f9b779b17422d0df92223018b32b4d1fa46e071723d6817e2486d003becc55f0055005b60649060208551917f08c379a0000000000000000000000000000000000000000000000000000000008352820152601360248201527f455448207472616e73666572206661696c6564000000000000000000000000006044820152fd5b610857565b50346103fc5760806003193601126103fc57610941610e8e565b6024359173ffffffffffffffffffffffffffffffffffffffff938484168094036103fc576044359160643567ffffffffffffffff81116103fc576109889036908301610eb1565b969094610993611332565b83517fdd62ed3e0000000000000000000000000000000000000000000000000000000081523384820190815230602082810191909152939092169892969187908290819060400103818c5afa908115610bde579086915f91610bad575b5010610b8557610a0888159182159361082085610f9a565b5090610b7d575b610b56578215610b565781517f23b872dd000000000000000000000000000000000000000000000000000000008152338282015285602482015283604482015284816064815f8b5af1908115610b4c575f91610b16575b5015610abb5750519081527f7e84cf355329d6b808c9e3ae4ee1b5f653dc7e69685aaf385f7a0b9860ce9fc39190a360017f9b779b17422d0df92223018b32b4d1fa46e071723d6817e2486d003becc55f0055005b8360649251917f08c379a0000000000000000000000000000000000000000000000000000000008352820152601560248201527f4552433230207472616e73666572206661696c656400000000000000000000006044820152fd5b90508481813d8311610b45575b610b2d8183610f59565b810103126103fc575180151581036103fc575f610a66565b503d610b23565b83513d5f823e3d90fd5b90517fb4fa3fb3000000000000000000000000000000000000000000000000000000008152fd5b508415610a0f565b8284517f13be252b000000000000000000000000000000000000000000000000000000008152fd5b809250888092503d8311610bd7575b610bc68183610f59565b810103126103fc578590515f6109f0565b503d610bbc565b85513d5f823e3d90fd5b82346103fc575f6003193601126103fc5760209073ffffffffffffffffffffffffffffffffffffffff7f9016d09d72d40fdae2fd8ceac6b6234c7706214fd39c1cd1e609a0528c19930054169051908152f35b50346103fc575f6003193601126103fc577ff0c57e16840df040f15088dc2f81fe391c3923bec73e23a9662efc9c229c6a0090815460ff81851c16159167ffffffffffffffff821680159081610de8575b6001149081610dde575b159081610dd5575b50610dae57508160017fffffffffffffffffffffffffffffffffffffffffffffffff00000000000000008316178455610d79575b50610cdb61138c565b610ce361138c565b610cec33611201565b610cf461138c565b610cfc61138c565b60017f9b779b17422d0df92223018b32b4d1fa46e071723d6817e2486d003becc55f0055610d2657005b7fc7f505b2f371ae2175ee4913f4499e1f2633a7b5936321eed1cdaeb6115181d291817fffffffffffffffffffffffffffffffffffffffffffffff00ffffffffffffffff602093541690555160018152a1005b7fffffffffffffffffffffffffffffffffffffffffffffff00000000000000000016680100000000000000011782555f610cd2565b84517ff92ee8a9000000000000000000000000000000000000000000000000000000008152fd5b9050155f610c9e565b303b159150610c96565b849150610c8c565b346103fc575f6003193601126103fc57610e086112c2565b5f73ffffffffffffffffffffffffffffffffffffffff7f9016d09d72d40fdae2fd8ceac6b6234c7706214fd39c1cd1e609a0528c1993008054907fffffffffffffffffffffffff000000000000000000000000000000000000000082169055167f8be0079c531659141344cd1fd0a4f28419497f9722a3daafe3b4186f6b6457e08280a3005b6004359073ffffffffffffffffffffffffffffffffffffffff821682036103fc57565b9181601f840112156103fc5782359167ffffffffffffffff83116103fc57602083818601950101116103fc57565b9181601f840112156103fc5782359167ffffffffffffffff83116103fc576020808501948460051b0101116103fc57565b60a0810190811067ffffffffffffffff821117610f2c57604052565b7f4e487b71000000000000000000000000000000000000000000000000000000005f52604160045260245ffd5b90601f7fffffffffffffffffffffffffffffffffffffffffffffffffffffffffffffffe0910116810190811067ffffffffffffffff821117610f2c57604052565b15610fa157565b60646040517f08c379a000000000000000000000000000000000000000000000000000000000815260206004820152601560248201527f496e76616c696420746f6b656e206164647265737300000000000000000000006044820152fd5b67ffffffffffffffff8111610f2c57601f017fffffffffffffffffffffffffffffffffffffffffffffffffffffffffffffffe01660200190565b92919261104582610fff565b916110536040519384610f59565b8294818452818301116103fc578281602093845f960137010152565b67ffffffffffffffff8111610f2c5760051b60200190565b92916110928261106f565b916110a06040519384610f59565b829481845260208094019160051b81019283116103fc57905b8282106110c65750505050565b813573ffffffffffffffffffffffffffffffffffffffff811681036103fc5781529083019083016110b9565b92916110fd8261106f565b9161110b6040519384610f59565b829481845260208094019160051b81019283116103fc57905b8282106111315750505050565b81358152908301908301611124565b9291909261114d8461106f565b9161115b6040519384610f59565b829480845260208094019060051b8301928284116103fc5780915b84831061118557505050505050565b823567ffffffffffffffff81116103fc57820184601f820112156103fc5786916111b58683858095359101611039565b815201920191611176565b80518210156111d45760209160051b010190565b7f4e487b71000000000000000000000000000000000000000000000000000000005f52603260045260245ffd5b73ffffffffffffffffffffffffffffffffffffffff809116908115611292577f9016d09d72d40fdae2fd8ceac6b6234c7706214fd39c1cd1e609a0528c199300805490837fffffffffffffffffffffffff00000000000000000000000000000000000000008316179055167f8be0079c531659141344cd1fd0a4f28419497f9722a3daafe3b4186f6b6457e05f80a3565b60246040517f1e4fbdf70000000000000000000000000000000000000000000000000000000081525f6004820152fd5b73ffffffffffffffffffffffffffffffffffffffff7f9016d09d72d40fdae2fd8ceac6b6234c7706214fd39c1cd1e609a0528c1993005416330361130257565b60246040517f118cdaa7000000000000000000000000000000000000000000000000000000008152336004820152fd5b7f9b779b17422d0df92223018b32b4d1fa46e071723d6817e2486d003becc55f0060028154146113625760029055565b60046040517f3ee5aeb5000000000000000000000000000000000000000000000000000000008152fd5b60ff7ff0c57e16840df040f15088dc2f81fe391c3923bec73e23a9662efc9c229c6a005460401c16156113bb57565b60046040517fd7e6bcf8000000000000000000000000000000000000000000000000000000008152fdfea2646970667358221220a9f4619cfad54e73dbe13338b3441a46bac981fcbce307a87c4d07eb8198b13264736f6c63430008170033",
    "linkReferences": {}
  },
  "methodIdentifiers": {
    "donateERC20(address,address,uint256,bytes)": "8f06dca4",
    "donateETH(address,uint256,bytes)": "ab6e9f5e",
    "donateManyERC20(address,uint256,address[],uint256[],bytes[])": "b5f01335",
    "donateManyETH(uint256,address[],uint256[],bytes[])": "f962d164",
    "initialize()": "8129fc1c",
    "owner()": "8da5cb5b",
    "renounceOwnership()": "715018a6",
    "transferOwnership(address)": "f2fde38b"
  },
  "id": 38
}